{
  "contractName": "TransactionContract",
  "abi": [
    {
      "constant": true,
      "inputs": [],
      "name": "_acceptor",
      "outputs": [
        {
          "name": "",
          "type": "address"
        }
      ],
      "payable": false,
      "stateMutability": "view",
      "type": "function"
    },
    {
      "constant": true,
      "inputs": [],
      "name": "_requestor",
      "outputs": [
        {
          "name": "",
          "type": "address"
        }
      ],
      "payable": false,
      "stateMutability": "view",
      "type": "function"
    },
    {
      "inputs": [],
      "payable": false,
      "stateMutability": "nonpayable",
      "type": "constructor"
    },
    {
      "constant": false,
      "inputs": [],
      "name": "deposit",
      "outputs": [],
      "payable": true,
      "stateMutability": "payable",
      "type": "function"
    },
    {
      "constant": false,
      "inputs": [
        {
          "name": "_to",
          "type": "address"
        }
      ],
      "name": "transferETH",
      "outputs": [
        {
          "name": "",
          "type": "bool"
        }
      ],
      "payable": true,
      "stateMutability": "payable",
      "type": "function"
    },
    {
      "constant": false,
      "inputs": [],
      "name": "getRequestor",
      "outputs": [
        {
          "name": "",
          "type": "address"
        }
      ],
      "payable": false,
      "stateMutability": "nonpayable",
      "type": "function"
    },
    {
      "constant": false,
      "inputs": [],
      "name": "getAcceptor",
      "outputs": [
        {
          "name": "",
          "type": "address"
        }
      ],
      "payable": false,
      "stateMutability": "nonpayable",
      "type": "function"
    },
    {
      "constant": false,
      "inputs": [],
      "name": "getContractBalance",
      "outputs": [
        {
          "name": "",
          "type": "uint256"
        }
      ],
      "payable": false,
      "stateMutability": "nonpayable",
      "type": "function"
    },
    {
      "constant": false,
      "inputs": [],
      "name": "setAcceptor",
      "outputs": [],
      "payable": false,
      "stateMutability": "nonpayable",
      "type": "function"
    },
    {
      "constant": false,
      "inputs": [],
      "name": "confirmPurchase",
      "outputs": [],
      "payable": true,
      "stateMutability": "payable",
      "type": "function"
    },
    {
      "constant": false,
      "inputs": [],
      "name": "confirmReceived",
      "outputs": [],
      "payable": false,
      "stateMutability": "nonpayable",
      "type": "function"
    }
  ],
  "bytecode": "0x608060405234801561001057600080fd5b50336000806101000a81548173ffffffffffffffffffffffffffffffffffffffff021916908373ffffffffffffffffffffffffffffffffffffffff160217905550610680806100606000396000f3006080604052600436106100a4576000357c0100000000000000000000000000000000000000000000000000000000900463ffffffff168063233318d8146100a9578063244c81d4146101005780636f9fb98a1461011757806373fac6f014610142578063a3f5b1bf14610159578063d0e30db0146101b0578063d50f6bf0146101ba578063d696069714610208578063f62bd00214610212578063fa65ea9314610269575b600080fd5b3480156100b557600080fd5b506100be6102c0565b604051808273ffffffffffffffffffffffffffffffffffffffff1673ffffffffffffffffffffffffffffffffffffffff16815260200191505060405180910390f35b34801561010c57600080fd5b506101156102e6565b005b34801561012357600080fd5b5061012c610329565b6040518082815260200191505060405180910390f35b34801561014e57600080fd5b50610157610333565b005b34801561016557600080fd5b5061016e610479565b604051808273ffffffffffffffffffffffffffffffffffffffff1673ffffffffffffffffffffffffffffffffffffffff16815260200191505060405180910390f35b6101b86104a2565b005b6101ee600480360381019080803573ffffffffffffffffffffffffffffffffffffffff1690602001909291905050506104ab565b604051808215151515815260200191505060405180910390f35b610210610538565b005b34801561021e57600080fd5b50610227610605565b604051808273ffffffffffffffffffffffffffffffffffffffff1673ffffffffffffffffffffffffffffffffffffffff16815260200191505060405180910390f35b34801561027557600080fd5b5061027e61062f565b604051808273ffffffffffffffffffffffffffffffffffffffff1673ffffffffffffffffffffffffffffffffffffffff16815260200191505060405180910390f35b600160009054906101000a900473ffffffffffffffffffffffffffffffffffffffff1681565b33600160006101000a81548173ffffffffffffffffffffffffffffffffffffffff021916908373ffffffffffffffffffffffffffffffffffffffff160217905550565b6000600254905090565b6000809054906101000a900473ffffffffffffffffffffffffffffffffffffffff1673ffffffffffffffffffffffffffffffffffffffff163373ffffffffffffffffffffffffffffffffffffffff161415156103f7576040517f08c379a000000000000000000000000000000000000000000000000000000000815260040180806020018281038252601d8152602001807f4f6e6c7920726571756573746f722063616e2063616c6c20746869732e00000081525060200191505060405180910390fd5b600160009054906101000a900473ffffffffffffffffffffffffffffffffffffffff1673ffffffffffffffffffffffffffffffffffffffff166108fc3073ffffffffffffffffffffffffffffffffffffffff16319081150290604051600060405180830381858888f19350505050158015610476573d6000803e3d6000fd5b50565b60008060009054906101000a900473ffffffffffffffffffffffffffffffffffffffff16905090565b34600281905550565b60003373ffffffffffffffffffffffffffffffffffffffff168273ffffffffffffffffffffffffffffffffffffffff16141515156104e857600080fd5b8173ffffffffffffffffffffffffffffffffffffffff166108fc349081150290604051600060405180830381858888f1935050505015801561052e573d6000803e3d6000fd5b5060019050919050565b6000809054906101000a900473ffffffffffffffffffffffffffffffffffffffff1673ffffffffffffffffffffffffffffffffffffffff163373ffffffffffffffffffffffffffffffffffffffff161415156105fc576040517f08c379a000000000000000000000000000000000000000000000000000000000815260040180806020018281038252601d8152602001807f4f6e6c7920726571756573746f722063616e2063616c6c20746869732e00000081525060200191505060405180910390fd5b34600281905550565b6000600160009054906101000a900473ffffffffffffffffffffffffffffffffffffffff16905090565b6000809054906101000a900473ffffffffffffffffffffffffffffffffffffffff16815600a165627a7a72305820f9182955ac9ca7798de0d1112261220d58f647cc927c2df205110ae5f21151080029",
  "source": "pragma solidity ^0.4.23;\n\ncontract TransactionContract {\n\n  address public _requestor;\n  address public _acceptor;\n\n  uint _value;\n\n  // event Transfer(address indexed _from, address indexed _to, uint256 _value);\n\n  constructor() public{\n    _requestor = msg.sender;\n    // _value = msg.value;\n  }\n\n  modifier onlyRequestor(){\n    require(msg.sender == _requestor,\"Only requestor can call this.\");\n    _;\n  }\n\n  modifier onlyAcceptor(){\n    require(msg.sender == _acceptor,\"Only acceptor can call this.\");\n    _;\n  }\n\n  function deposit() public payable{\n    _value = msg.value;\n  }\n\n  function transferETH(address _to) payable public returns(bool){\n    require(_to != msg.sender);\n    _to.transfer(msg.value);\n    return true;\n  }\n\n  function getRequestor() public returns(address){\n    return _requestor;\n  }\n\n  function getAcceptor() public returns(address){\n    return _acceptor;\n  }\n\n  function getContractBalance() public returns(uint){\n    return _value;\n  }\n\n  function setAcceptor() public {\n    _acceptor = msg.sender;\n  }\n\n  /// 买家确认购买。\n    /// 交易必须包含 `2 * value` 个以太币。\n    /// 以太币会被锁定，直到 confirmReceived 被调用。\n    function confirmPurchase()\n        public onlyRequestor payable\n    {\n      // _requestor = msg.sender;\n      _value = msg.value;\n    }\n\n    /// 确认你（买家）已经收到商品。\n    /// 这会释放被锁定的以太币。\n    function confirmReceived()\n        public onlyRequestor\n    {\n\n        // 注意: 这实际上允许买方和卖方阻止退款 - 应该使用取回模式。\n        // _requestor.transfer(_value);\n        _acceptor.transfer(address(this).balance);\n    }\n\n}",
  "sourcePath": "/Users/lixiaofei/Desktop/Hareshare/contracts/TransactionContract.sol",
  "compiler": {
    "name": "solc",
    "version": "0.4.23+commit.124ca40d.Emscripten.clang"
  },
  "schemaVersion": "2.0.0",
  "updatedAt": "2018-07-27T11:01:24.129Z"
}