{
  "contractName": "TransactionContract",
  "abi": [
    {
      "constant": true,
      "inputs": [],
      "name": "_acceptor",
      "outputs": [
        {
          "name": "",
          "type": "address"
        }
      ],
      "payable": false,
      "stateMutability": "view",
      "type": "function"
    },
    {
      "constant": true,
      "inputs": [],
      "name": "_requestor",
      "outputs": [
        {
          "name": "",
          "type": "address"
        }
      ],
      "payable": false,
      "stateMutability": "view",
      "type": "function"
    },
    {
      "inputs": [],
      "payable": false,
      "stateMutability": "nonpayable",
      "type": "constructor"
    },
    {
      "constant": false,
      "inputs": [],
      "name": "deposit",
      "outputs": [],
      "payable": true,
      "stateMutability": "payable",
      "type": "function"
    },
    {
      "constant": false,
      "inputs": [
        {
          "name": "_to",
          "type": "address"
        }
      ],
      "name": "transferETH",
      "outputs": [
        {
          "name": "",
          "type": "bool"
        }
      ],
      "payable": true,
      "stateMutability": "payable",
      "type": "function"
    },
    {
      "constant": false,
      "inputs": [],
      "name": "getRequestor",
      "outputs": [
        {
          "name": "",
          "type": "address"
        }
      ],
      "payable": false,
      "stateMutability": "nonpayable",
      "type": "function"
    },
    {
      "constant": false,
      "inputs": [],
      "name": "getAcceptor",
      "outputs": [
        {
          "name": "",
          "type": "address"
        }
      ],
      "payable": false,
      "stateMutability": "nonpayable",
      "type": "function"
    },
    {
      "constant": false,
      "inputs": [],
      "name": "getContractBalance",
      "outputs": [
        {
          "name": "",
          "type": "uint256"
        }
      ],
      "payable": false,
      "stateMutability": "nonpayable",
      "type": "function"
    },
    {
      "constant": false,
      "inputs": [
        {
          "name": "acceptor",
          "type": "address"
        }
      ],
      "name": "setAcceptor",
      "outputs": [],
      "payable": false,
      "stateMutability": "nonpayable",
      "type": "function"
    },
    {
      "constant": false,
      "inputs": [],
      "name": "confirmPurchase",
      "outputs": [],
      "payable": true,
      "stateMutability": "payable",
      "type": "function"
    },
    {
      "constant": false,
      "inputs": [],
      "name": "confirmReceived",
      "outputs": [],
      "payable": false,
      "stateMutability": "nonpayable",
      "type": "function"
    }
  ],
  "bytecode": "0x608060405234801561001057600080fd5b50336000806101000a81548173ffffffffffffffffffffffffffffffffffffffff021916908373ffffffffffffffffffffffffffffffffffffffff1602179055506106ad806100606000396000f3006080604052600436106100a4576000357c0100000000000000000000000000000000000000000000000000000000900463ffffffff168063233318d8146100a95780636f9fb98a1461010057806373fac6f01461012b57806391ab88eb14610142578063a3f5b1bf14610185578063d0e30db0146101dc578063d50f6bf0146101e6578063d696069714610234578063f62bd0021461023e578063fa65ea9314610295575b600080fd5b3480156100b557600080fd5b506100be6102ec565b604051808273ffffffffffffffffffffffffffffffffffffffff1673ffffffffffffffffffffffffffffffffffffffff16815260200191505060405180910390f35b34801561010c57600080fd5b50610115610312565b6040518082815260200191505060405180910390f35b34801561013757600080fd5b5061014061031c565b005b34801561014e57600080fd5b50610183600480360381019080803573ffffffffffffffffffffffffffffffffffffffff169060200190929190505050610462565b005b34801561019157600080fd5b5061019a6104a6565b604051808273ffffffffffffffffffffffffffffffffffffffff1673ffffffffffffffffffffffffffffffffffffffff16815260200191505060405180910390f35b6101e46104cf565b005b61021a600480360381019080803573ffffffffffffffffffffffffffffffffffffffff1690602001909291905050506104d8565b604051808215151515815260200191505060405180910390f35b61023c610565565b005b34801561024a57600080fd5b50610253610632565b604051808273ffffffffffffffffffffffffffffffffffffffff1673ffffffffffffffffffffffffffffffffffffffff16815260200191505060405180910390f35b3480156102a157600080fd5b506102aa61065c565b604051808273ffffffffffffffffffffffffffffffffffffffff1673ffffffffffffffffffffffffffffffffffffffff16815260200191505060405180910390f35b600160009054906101000a900473ffffffffffffffffffffffffffffffffffffffff1681565b6000600254905090565b6000809054906101000a900473ffffffffffffffffffffffffffffffffffffffff1673ffffffffffffffffffffffffffffffffffffffff163373ffffffffffffffffffffffffffffffffffffffff161415156103e0576040517f08c379a000000000000000000000000000000000000000000000000000000000815260040180806020018281038252601d8152602001807f4f6e6c7920726571756573746f722063616e2063616c6c20746869732e00000081525060200191505060405180910390fd5b600160009054906101000a900473ffffffffffffffffffffffffffffffffffffffff1673ffffffffffffffffffffffffffffffffffffffff166108fc3073ffffffffffffffffffffffffffffffffffffffff16319081150290604051600060405180830381858888f1935050505015801561045f573d6000803e3d6000fd5b50565b80600160006101000a81548173ffffffffffffffffffffffffffffffffffffffff021916908373ffffffffffffffffffffffffffffffffffffffff16021790555050565b60008060009054906101000a900473ffffffffffffffffffffffffffffffffffffffff16905090565b34600281905550565b60003373ffffffffffffffffffffffffffffffffffffffff168273ffffffffffffffffffffffffffffffffffffffff161415151561051557600080fd5b8173ffffffffffffffffffffffffffffffffffffffff166108fc349081150290604051600060405180830381858888f1935050505015801561055b573d6000803e3d6000fd5b5060019050919050565b6000809054906101000a900473ffffffffffffffffffffffffffffffffffffffff1673ffffffffffffffffffffffffffffffffffffffff163373ffffffffffffffffffffffffffffffffffffffff16141515610629576040517f08c379a000000000000000000000000000000000000000000000000000000000815260040180806020018281038252601d8152602001807f4f6e6c7920726571756573746f722063616e2063616c6c20746869732e00000081525060200191505060405180910390fd5b34600281905550565b6000600160009054906101000a900473ffffffffffffffffffffffffffffffffffffffff16905090565b6000809054906101000a900473ffffffffffffffffffffffffffffffffffffffff16815600a165627a7a7230582055481699d8044e042cb76daf56dbdb263680a7ba47e2bca5f3747a18ea82844f0029",
  "source": "pragma solidity ^0.4.23;\n\ncontract TransactionContract {\n\n  address public _requestor;\n  address public _acceptor;\n\n  uint _value;\n\n  // event Transfer(address indexed _from, address indexed _to, uint256 _value);\n\n  constructor() public{\n    _requestor = msg.sender;\n    // _value = msg.value;\n  }\n\n  modifier onlyRequestor(){\n    require(msg.sender == _requestor,\"Only requestor can call this.\");\n    _;\n  }\n\n  modifier onlyAcceptor(){\n    require(msg.sender == _acceptor,\"Only acceptor can call this.\");\n    _;\n  }\n\n  function deposit() public payable{\n    _value = msg.value;\n  }\n\n  function transferETH(address _to) payable public returns(bool){\n    require(_to != msg.sender);\n    _to.transfer(msg.value);\n    return true;\n  }\n\n  function getRequestor() public returns(address){\n    return _requestor;\n  }\n\n  function getAcceptor() public returns(address){\n    return _acceptor;\n  }\n\n  function getContractBalance() public returns(uint){\n    return _value;\n  }\n\n  function setAcceptor(address acceptor) public {\n    _acceptor = acceptor;\n  }\n\n  /// 买家确认购买。\n    /// 交易必须包含 `2 * value` 个以太币。\n    /// 以太币会被锁定，直到 confirmReceived 被调用。\n    function confirmPurchase()\n        public onlyRequestor payable\n    {\n      // _requestor = msg.sender;\n      _value = msg.value;\n    }\n\n    /// 确认你（买家）已经收到商品。\n    /// 这会释放被锁定的以太币。\n    function confirmReceived()\n        public onlyRequestor\n    {\n\n        // 注意: 这实际上允许买方和卖方阻止退款 - 应该使用取回模式。\n        // _requestor.transfer(_value);\n        _acceptor.transfer(address(this).balance);\n    }\n\n}",
  "sourcePath": "/Users/lixiaofei/Desktop/Hareshare/contracts/TransactionContract.sol",
  "compiler": {
    "name": "solc",
    "version": "0.4.23+commit.124ca40d.Emscripten.clang"
  },
  "schemaVersion": "2.0.0",
  "updatedAt": "2018-07-27T04:45:10.301Z"
}